:10060500455252434D0054483A00544C3A0030315B
:1006150032333435363738390064697374616E6343
:03062500653A0033
:0E069A00C10002080064020A0001020C000008
:03000300DFFE22FB
:10066100AE07AF061EEF600C7FF51200037FF51297
:05067100000380EE22F1
:10068A007580FFC2A6D2A5C2A700D2A7E5803322F1
:0C0628007F381206347F051206617F380F
:1006340012068A40FBC2A6C2A5D2A78F8000C2A719
:010644002293
:030676002430FF2E
:1006790012068A40FBD2A6C2A5D2A78F8000C2A7C4
:01068900224E
:0A06A9007F011206347F050206618E
:1005BE00AE07ED7005EE24808003EE24C0FF120618
:1005CE0034120273FF600C120679740129F9E43AB1
:0405DE00FA80EE228F
:1005E2001206287F051206611206287F08120634B9
:1005F2007F011206347F061206341F1206617F0C39
:03060200020634B9
:0A06B300D2A17F14120003C2A1229D
:1003E400AF8CEFFEAD8A7C00E42DFFEC3EFEE4F51D
:1003F4008CF58AAD07AC061201B97B9A7A9979D942
:10040400783F12000EE4FBFA79C878421201171201
:1004140001F28E0C8F0D7C007D6412028C8F11AE64
:100424000CAF0D7C007D0A12028C7C007D0A120246
:100434008C8D12AE0CAF0D7C007D0A12028C8D14D3
:10044400C3E50D94BCE50C9402500330000FC200C8
:100454007BFF7A067905E4FD7F090205BE7F8912D8
:100464000634E51190061393FF1206797F8A12066B
:1004740034E51293FF1206797F8B120634E5149348
:10048400FF1206797F8C1206347F431206797F8D22
:080494001206347F4D120679B7
:01049C00223D
:10064500D3E50D9509E50C9508500BC3E50D950B04
:0C065500E50C950A5003B2A622D2A622A2
:10049D0020B1217F1412066120B11930B1FD05097B
:1004AD00E50970020508C394C8E50894004005E409
:1004BD00F508F50920B0237F1412066120B01B301A
:1004CD00B0FDE509150970021508D3E5099400E59D
:1004DD000894005005E4F508F50920B2217F1412A7
:1004ED00066120B21930B2FD050BE50B7002050A4D
:1004FD00C39464E50A94004005E4F50AF50B20B3B6
:10050D00237F1412066120B31B30B3FDE50B150BD1
:10051D007002150AD3E50B9400E50A94005005E42A
:05052D00F50AF50B22A8
:1002EF00758901E4F58CF58AD2A9D2AFD2A6120591
:1002FF00E21206A97BFF7A06791EE4FDFF1205BE06
:10030F007A06790B0DE4FF1205BE7A06790F7F0985
:10031F001205BE12049DAE08AF097C007D64120267
:10032F008C8F13AE08AF097C007D0A12028C7C0003
:10033F007D0A12028C8D15AE08AF097C007D0A1262
:10034F00028C8D16AE0AAF0B7C007D6412028C8F6F
:10035F000EAE0AAF0B7C007D0A12028C7C007D0A68
:10036F0012028C8D0FAE0AAF0B7C007D0A12028C2D
:10037F008D107FC3120634E5131206767FC4120662
:10038F0034E5151206767FC5120634E5162430FFC4
:10039F001206797FCC120634E50E2430FF1206794F
:1003AF007FCD120634E50F2430FF1206797FCE126F
:1003BF000634E5102430FF1206791206B330A0FD83
:1003CF00D28C20A0FDC28C1203E41206457F64126A
:0503DF0006610203228B
:03000B00020006EA
:03000600D20032F3
:10000E00EC4D6011E8497017ED33EC3304600DE4EC
:10001E00FCFFFEFD22E933E8330470F802025E12A3
:10002E00022958046009E4CC2481500628500902A4
:10003E000268284003020265C0E0EB4A7044B980B2
:10004E0006D0E0FB020254EF4E701CBD8008EBFFA1
:10005E00EAFEE9FD80EBE98DF0A4FEE5F00200F783
:10006E00E9CDF9EAFEEBFFEF89F0A4FCE5F0CE89CD
:10007E00F0A42EFFE435F0CD89F0A42DFEE435F08A
:10008E008067EF4E7005BD80D780C3EF8BF0A4ACB8
:10009E00F0EE8BF0A42CFCE435F0F8EF8AF0A42CF3
:1000AE00E5F038FCE433CB8DF0A42CFCE5F03BF806
:1000BE00EE8AF0A42CFCE5F038F8E433CF89F0A4F6
:1000CE002CFCE5F038CF3400CE89F0A42FFFE5F0FC
:1000DE003EFEE433C98DF0A42EFEE5F039CD8AF054
:1000EE00A42FFFE5F03EFEE43DFD33D0E0FB5007CC
:1000FE000BBB000F020268EC2CFCEF33FFEE33FE5D
:06010E00ED33FD0202408A
:10011400020268EC5D046005E85904700302025EA3
:10012400120229580460F6EC4860F2EC7004FDFEFB
:10013400FF22C860DB2481C85009C39860025006BE
:100144000202659850CAF582E9294B4A7005AB82D0
:1001540002025475F0007C1A7880C3EF9BEE9AED8E
:1001640099400DC3EF9BFFEE9AFEED99FDE842F036
:10017400DC23ACF0D0E0FFD0E0FED0E0FDAB822089
:10018400E7101BEB60BAEC2CFCEF33FFEE33FEED13
:1001940033FD020240E803F830E705C0F075F000D3
:1001A400EF2FFFEE33FEED33FD40B830E7C280AAF7
:1001B40075F020800E75F010800575F0087D007EC6
:1001C400007F003392D530D5031202E1EC334010A6
:1001D400EF33FFEE33FEED33FDEC33FCD5F0ED22CF
:0E01E400E5F0247EA2D513CC92E7CDCEFF220B
:1001F200EDD2E7CD33EC3392D524814006E4FFFE05
:10020200FDFC22FCE4CFCECDCC24E0501174FF8063
:10021200EDC3CC13CCCD13CDCE13CECF13CF047000
:07022200F030D5DE0202E11D
:10022900E9D2E7C933E833F892D5EDD2E7CD33EC1B
:0702390033FC5002B2D52294
:10024000EC30E7100FBF000C0EBE00080DBD00041F
:100250000BEB6014A2D5EB13FCED92E7FD2274FFCB
:10026000FCFDFEFF22E480F8A2D574FF13FC7D8024
:03027000E480EF38
:03000000020532C4
:0C053200787FE4F6D8FD75812002057981
:10027300BB010689828A83E0225002E722BBFE0289
:09028300E32289828A83E49322BC
:10028C00BC000BBE0029EF8DF084FFADF022E4CC56
:10029C00F875F008EF2FFFEE33FEEC33FCEE9DEC1F
:1002AC00984005FCEE9DFE0FD5F0E9E4CEFD22ED65
:1002BC00F8F5F0EE8420D21CFEADF075F008EF2FAF
:1002CC00FFED33FD4007985006D5F0F222C398FDA0
:0502DC000FD5F0EA223D
:0E02E100C3E49FFFE49EFEE49DFDE49CFC222E
:10053E000202EFE493A3F8E493A34003F68001F2E2
:10054E0008DFF48029E493A3F85407240CC8C333BE
:10055E00C4540F4420C8834004F456800146F6DF8D
:10056E00E4800B010204081020408090069AE47E7D
:10057E00019360BCA3FF543F30E509541FFEE49382
:10058E00A360010ECF54C025E060A840B8E493A349
:10059E00FAE493A3F8E493A3C8C582C8CAC583CA74
:1005AE00F0A3C8C582C8CAC583CADFE9DEE780BE2C
:0106A8000051
:00000001FF
